{
  "contractName": "NftMarket",
  "abi": [
    {
      "inputs": [],
      "stateMutability": "nonpayable",
      "type": "constructor"
    },
    {
      "anonymous": false,
      "inputs": [
        {
          "indexed": true,
          "internalType": "address",
          "name": "owner",
          "type": "address"
        },
        {
          "indexed": true,
          "internalType": "address",
          "name": "approved",
          "type": "address"
        },
        {
          "indexed": true,
          "internalType": "uint256",
          "name": "tokenId",
          "type": "uint256"
        }
      ],
      "name": "Approval",
      "type": "event"
    },
    {
      "anonymous": false,
      "inputs": [
        {
          "indexed": true,
          "internalType": "address",
          "name": "owner",
          "type": "address"
        },
        {
          "indexed": true,
          "internalType": "address",
          "name": "operator",
          "type": "address"
        },
        {
          "indexed": false,
          "internalType": "bool",
          "name": "approved",
          "type": "bool"
        }
      ],
      "name": "ApprovalForAll",
      "type": "event"
    },
    {
      "anonymous": false,
      "inputs": [
        {
          "indexed": false,
          "internalType": "uint256",
          "name": "tokenId",
          "type": "uint256"
        },
        {
          "indexed": false,
          "internalType": "uint256",
          "name": "price",
          "type": "uint256"
        },
        {
          "indexed": false,
          "internalType": "address",
          "name": "creator",
          "type": "address"
        },
        {
          "indexed": false,
          "internalType": "bool",
          "name": "isListed",
          "type": "bool"
        }
      ],
      "name": "NftItemCreated",
      "type": "event"
    },
    {
      "anonymous": false,
      "inputs": [
        {
          "indexed": true,
          "internalType": "address",
          "name": "previousOwner",
          "type": "address"
        },
        {
          "indexed": true,
          "internalType": "address",
          "name": "newOwner",
          "type": "address"
        }
      ],
      "name": "OwnershipTransferred",
      "type": "event"
    },
    {
      "anonymous": false,
      "inputs": [
        {
          "indexed": true,
          "internalType": "address",
          "name": "from",
          "type": "address"
        },
        {
          "indexed": true,
          "internalType": "address",
          "name": "to",
          "type": "address"
        },
        {
          "indexed": true,
          "internalType": "uint256",
          "name": "tokenId",
          "type": "uint256"
        }
      ],
      "name": "Transfer",
      "type": "event"
    },
    {
      "inputs": [
        {
          "internalType": "address",
          "name": "to",
          "type": "address"
        },
        {
          "internalType": "uint256",
          "name": "tokenId",
          "type": "uint256"
        }
      ],
      "name": "approve",
      "outputs": [],
      "stateMutability": "nonpayable",
      "type": "function"
    },
    {
      "inputs": [
        {
          "internalType": "address",
          "name": "owner",
          "type": "address"
        }
      ],
      "name": "balanceOf",
      "outputs": [
        {
          "internalType": "uint256",
          "name": "",
          "type": "uint256"
        }
      ],
      "stateMutability": "view",
      "type": "function",
      "constant": true
    },
    {
      "inputs": [
        {
          "internalType": "uint256",
          "name": "tokenId",
          "type": "uint256"
        }
      ],
      "name": "getApproved",
      "outputs": [
        {
          "internalType": "address",
          "name": "",
          "type": "address"
        }
      ],
      "stateMutability": "view",
      "type": "function",
      "constant": true
    },
    {
      "inputs": [
        {
          "internalType": "address",
          "name": "owner",
          "type": "address"
        },
        {
          "internalType": "address",
          "name": "operator",
          "type": "address"
        }
      ],
      "name": "isApprovedForAll",
      "outputs": [
        {
          "internalType": "bool",
          "name": "",
          "type": "bool"
        }
      ],
      "stateMutability": "view",
      "type": "function",
      "constant": true
    },
    {
      "inputs": [],
      "name": "listingPrice",
      "outputs": [
        {
          "internalType": "uint256",
          "name": "",
          "type": "uint256"
        }
      ],
      "stateMutability": "view",
      "type": "function",
      "constant": true
    },
    {
      "inputs": [],
      "name": "name",
      "outputs": [
        {
          "internalType": "string",
          "name": "",
          "type": "string"
        }
      ],
      "stateMutability": "view",
      "type": "function",
      "constant": true
    },
    {
      "inputs": [],
      "name": "owner",
      "outputs": [
        {
          "internalType": "address",
          "name": "",
          "type": "address"
        }
      ],
      "stateMutability": "view",
      "type": "function",
      "constant": true
    },
    {
      "inputs": [
        {
          "internalType": "uint256",
          "name": "tokenId",
          "type": "uint256"
        }
      ],
      "name": "ownerOf",
      "outputs": [
        {
          "internalType": "address",
          "name": "",
          "type": "address"
        }
      ],
      "stateMutability": "view",
      "type": "function",
      "constant": true
    },
    {
      "inputs": [],
      "name": "renounceOwnership",
      "outputs": [],
      "stateMutability": "nonpayable",
      "type": "function"
    },
    {
      "inputs": [
        {
          "internalType": "address",
          "name": "from",
          "type": "address"
        },
        {
          "internalType": "address",
          "name": "to",
          "type": "address"
        },
        {
          "internalType": "uint256",
          "name": "tokenId",
          "type": "uint256"
        }
      ],
      "name": "safeTransferFrom",
      "outputs": [],
      "stateMutability": "nonpayable",
      "type": "function"
    },
    {
      "inputs": [
        {
          "internalType": "address",
          "name": "from",
          "type": "address"
        },
        {
          "internalType": "address",
          "name": "to",
          "type": "address"
        },
        {
          "internalType": "uint256",
          "name": "tokenId",
          "type": "uint256"
        },
        {
          "internalType": "bytes",
          "name": "_data",
          "type": "bytes"
        }
      ],
      "name": "safeTransferFrom",
      "outputs": [],
      "stateMutability": "nonpayable",
      "type": "function"
    },
    {
      "inputs": [
        {
          "internalType": "address",
          "name": "operator",
          "type": "address"
        },
        {
          "internalType": "bool",
          "name": "approved",
          "type": "bool"
        }
      ],
      "name": "setApprovalForAll",
      "outputs": [],
      "stateMutability": "nonpayable",
      "type": "function"
    },
    {
      "inputs": [
        {
          "internalType": "bytes4",
          "name": "interfaceId",
          "type": "bytes4"
        }
      ],
      "name": "supportsInterface",
      "outputs": [
        {
          "internalType": "bool",
          "name": "",
          "type": "bool"
        }
      ],
      "stateMutability": "view",
      "type": "function",
      "constant": true
    },
    {
      "inputs": [],
      "name": "symbol",
      "outputs": [
        {
          "internalType": "string",
          "name": "",
          "type": "string"
        }
      ],
      "stateMutability": "view",
      "type": "function",
      "constant": true
    },
    {
      "inputs": [
        {
          "internalType": "uint256",
          "name": "tokenId",
          "type": "uint256"
        }
      ],
      "name": "tokenURI",
      "outputs": [
        {
          "internalType": "string",
          "name": "",
          "type": "string"
        }
      ],
      "stateMutability": "view",
      "type": "function",
      "constant": true
    },
    {
      "inputs": [
        {
          "internalType": "address",
          "name": "from",
          "type": "address"
        },
        {
          "internalType": "address",
          "name": "to",
          "type": "address"
        },
        {
          "internalType": "uint256",
          "name": "tokenId",
          "type": "uint256"
        }
      ],
      "name": "transferFrom",
      "outputs": [],
      "stateMutability": "nonpayable",
      "type": "function"
    },
    {
      "inputs": [
        {
          "internalType": "address",
          "name": "newOwner",
          "type": "address"
        }
      ],
      "name": "transferOwnership",
      "outputs": [],
      "stateMutability": "nonpayable",
      "type": "function"
    },
    {
      "inputs": [
        {
          "internalType": "uint256",
          "name": "newPrice",
          "type": "uint256"
        }
      ],
      "name": "setListingPrice",
      "outputs": [],
      "stateMutability": "nonpayable",
      "type": "function"
    },
    {
      "inputs": [
        {
          "internalType": "uint256",
          "name": "tokenId",
          "type": "uint256"
        }
      ],
      "name": "getNftItem",
      "outputs": [
        {
          "components": [
            {
              "internalType": "uint256",
              "name": "tokenId",
              "type": "uint256"
            },
            {
              "internalType": "uint256",
              "name": "price",
              "type": "uint256"
            },
            {
              "internalType": "address",
              "name": "creator",
              "type": "address"
            },
            {
              "internalType": "bool",
              "name": "isListed",
              "type": "bool"
            }
          ],
          "internalType": "struct NftMarket.NftItem",
          "name": "",
          "type": "tuple"
        }
      ],
      "stateMutability": "view",
      "type": "function",
      "constant": true
    },
    {
      "inputs": [],
      "name": "listedItemsCount",
      "outputs": [
        {
          "internalType": "uint256",
          "name": "",
          "type": "uint256"
        }
      ],
      "stateMutability": "view",
      "type": "function",
      "constant": true
    },
    {
      "inputs": [
        {
          "internalType": "string",
          "name": "tokenURI",
          "type": "string"
        }
      ],
      "name": "tokenURIExists",
      "outputs": [
        {
          "internalType": "bool",
          "name": "",
          "type": "bool"
        }
      ],
      "stateMutability": "view",
      "type": "function",
      "constant": true
    },
    {
      "inputs": [],
      "name": "totalSupply",
      "outputs": [
        {
          "internalType": "uint256",
          "name": "",
          "type": "uint256"
        }
      ],
      "stateMutability": "view",
      "type": "function",
      "constant": true
    },
    {
      "inputs": [],
      "name": "listNftIds",
      "outputs": [
        {
          "internalType": "uint256[]",
          "name": "",
          "type": "uint256[]"
        }
      ],
      "stateMutability": "view",
      "type": "function",
      "constant": true
    },
    {
      "inputs": [
        {
          "internalType": "uint256",
          "name": "index",
          "type": "uint256"
        }
      ],
      "name": "tokenByIndex",
      "outputs": [
        {
          "internalType": "uint256",
          "name": "",
          "type": "uint256"
        }
      ],
      "stateMutability": "view",
      "type": "function",
      "constant": true
    },
    {
      "inputs": [
        {
          "internalType": "address",
          "name": "owner",
          "type": "address"
        },
        {
          "internalType": "uint256",
          "name": "index",
          "type": "uint256"
        }
      ],
      "name": "tokenOfOwnerByIndex",
      "outputs": [
        {
          "internalType": "uint256",
          "name": "",
          "type": "uint256"
        }
      ],
      "stateMutability": "view",
      "type": "function",
      "constant": true
    },
    {
      "inputs": [],
      "name": "getAllNftsOnSale",
      "outputs": [
        {
          "components": [
            {
              "internalType": "uint256",
              "name": "tokenId",
              "type": "uint256"
            },
            {
              "internalType": "uint256",
              "name": "price",
              "type": "uint256"
            },
            {
              "internalType": "address",
              "name": "creator",
              "type": "address"
            },
            {
              "internalType": "bool",
              "name": "isListed",
              "type": "bool"
            }
          ],
          "internalType": "struct NftMarket.NftItem[]",
          "name": "",
          "type": "tuple[]"
        }
      ],
      "stateMutability": "view",
      "type": "function",
      "constant": true
    },
    {
      "inputs": [],
      "name": "getOwnedNfts",
      "outputs": [
        {
          "components": [
            {
              "internalType": "uint256",
              "name": "tokenId",
              "type": "uint256"
            },
            {
              "internalType": "uint256",
              "name": "price",
              "type": "uint256"
            },
            {
              "internalType": "address",
              "name": "creator",
              "type": "address"
            },
            {
              "internalType": "bool",
              "name": "isListed",
              "type": "bool"
            }
          ],
          "internalType": "struct NftMarket.NftItem[]",
          "name": "",
          "type": "tuple[]"
        }
      ],
      "stateMutability": "view",
      "type": "function",
      "constant": true
    },
    {
      "inputs": [
        {
          "internalType": "uint256",
          "name": "tokenId",
          "type": "uint256"
        }
      ],
      "name": "burnToken",
      "outputs": [],
      "stateMutability": "nonpayable",
      "type": "function"
    },
    {
      "inputs": [
        {
          "internalType": "string",
          "name": "tokenURI",
          "type": "string"
        },
        {
          "internalType": "uint256",
          "name": "price",
          "type": "uint256"
        }
      ],
      "name": "mintToken",
      "outputs": [
        {
          "internalType": "uint256",
          "name": "",
          "type": "uint256"
        }
      ],
      "stateMutability": "payable",
      "type": "function",
      "payable": true
    },
    {
      "inputs": [
        {
          "internalType": "uint256",
          "name": "tokenId",
          "type": "uint256"
        }
      ],
      "name": "buyNft",
      "outputs": [],
      "stateMutability": "payable",
      "type": "function",
      "payable": true
    },
    {
      "inputs": [
        {
          "internalType": "uint256",
          "name": "tokenId",
          "type": "uint256"
        },
        {
          "internalType": "uint256",
          "name": "newPrice",
          "type": "uint256"
        }
      ],
      "name": "placeNftOnSale",
      "outputs": [],
      "stateMutability": "payable",
      "type": "function",
      "payable": true
    }
  ],
  "bytecode": "0x60806040526658d15e176280006008553480156200001c57600080fd5b506040518060400160405280600c81526020017f4372656174757265734e465400000000000000000000000000000000000000008152506040518060400160405280600481526020017f434e46540000000000000000000000000000000000000000000000000000000081525081600090816200009a91906200041d565b508060019081620000ac91906200041d565b505050620000cf620000c3620000d560201b60201c565b620000dd60201b60201c565b62000504565b600033905090565b6000600760009054906101000a900473ffffffffffffffffffffffffffffffffffffffff16905081600760006101000a81548173ffffffffffffffffffffffffffffffffffffffff021916908373ffffffffffffffffffffffffffffffffffffffff1602179055508173ffffffffffffffffffffffffffffffffffffffff168173ffffffffffffffffffffffffffffffffffffffff167f8be0079c531659141344cd1fd0a4f28419497f9722a3daafe3b4186f6b6457e060405160405180910390a35050565b600081519050919050565b7f4e487b7100000000000000000000000000000000000000000000000000000000600052604160045260246000fd5b7f4e487b7100000000000000000000000000000000000000000000000000000000600052602260045260246000fd5b600060028204905060018216806200022557607f821691505b6020821081036200023b576200023a620001dd565b5b50919050565b60008190508160005260206000209050919050565b60006020601f8301049050919050565b600082821b905092915050565b600060088302620002a57fffffffffffffffffffffffffffffffffffffffffffffffffffffffffffffffff8262000266565b620002b1868362000266565b95508019841693508086168417925050509392505050565b6000819050919050565b6000819050919050565b6000620002fe620002f8620002f284620002c9565b620002d3565b620002c9565b9050919050565b6000819050919050565b6200031a83620002dd565b62000332620003298262000305565b84845462000273565b825550505050565b600090565b620003496200033a565b620003568184846200030f565b505050565b5b818110156200037e57620003726000826200033f565b6001810190506200035c565b5050565b601f821115620003cd57620003978162000241565b620003a28462000256565b81016020851015620003b2578190505b620003ca620003c18562000256565b8301826200035b565b50505b505050565b600082821c905092915050565b6000620003f260001984600802620003d2565b1980831691505092915050565b60006200040d8383620003df565b9150826002028217905092915050565b6200042882620001a3565b67ffffffffffffffff811115620004445762000443620001ae565b5b6200045082546200020c565b6200045d82828562000382565b600060209050601f83116001811462000495576000841562000480578287015190505b6200048c8582620003ff565b865550620004fc565b601f198416620004a58662000241565b60005b82811015620004cf57848901518255600182019150602085019450602081019050620004a8565b86831015620004ef5784890151620004eb601f891682620003df565b8355505b6001600288020188555050505b505050505050565b614ebc80620005146000396000f3fe6080604052600436106101d85760003560e01c80636f1a0af511610102578063a22cb46511610095578063c87b56dd11610064578063c87b56dd146106bb578063ccb4918d146106f8578063e985e9c514610723578063f2fde38b14610760576101d8565b8063a22cb4651461060e578063b88d4fde14610637578063c046372c14610660578063c78f19f914610690576101d8565b80637b47ec1a116100d15780637b47ec1a146105665780637c726b691461058f5780638da5cb5b146105b857806395d89b41146105e3576101d8565b80636f1a0af5146104aa57806370a08231146104e757806370cbcb4314610524578063715018a61461054f576101d8565b806323b872dd1161017a57806342842e0e1161014957806342842e0e146103ca57806343d32ae7146103f35780634f6ccce7146104305780636352211e1461046d576101d8565b806323b872dd1461031d578063243adbdd146103465780632f745c591461036257806336b536be1461039f576101d8565b8063095ea7b3116101b6578063095ea7b31461028257806318160ddd146102ab57806320902d97146102d657806321f422e514610301576101d8565b806301ffc9a7146101dd57806306fdde031461021a578063081812fc14610245575b600080fd5b3480156101e957600080fd5b5061020460048036038101906101ff9190613152565b610789565b604051610211919061319a565b60405180910390f35b34801561022657600080fd5b5061022f61086b565b60405161023c9190613245565b60405180910390f35b34801561025157600080fd5b5061026c6004803603810190610267919061329d565b6108fd565b604051610279919061330b565b60405180910390f35b34801561028e57600080fd5b506102a960048036038101906102a49190613352565b610982565b005b3480156102b757600080fd5b506102c0610a99565b6040516102cd91906133a1565b60405180910390f35b3480156102e257600080fd5b506102eb610aa6565b6040516102f8919061347a565b60405180910390f35b61031b6004803603810190610316919061349c565b610afe565b005b34801561032957600080fd5b50610344600480360381019061033f91906134dc565b610c82565b005b610360600480360381019061035b919061329d565b610ce2565b005b34801561036e57600080fd5b5061038960048036038101906103849190613352565b610e58565b60405161039691906133a1565b60405180910390f35b3480156103ab57600080fd5b506103b4610efd565b6040516103c19190613651565b60405180910390f35b3480156103d657600080fd5b506103f160048036038101906103ec91906134dc565b61108a565b005b3480156103ff57600080fd5b5061041a600480360381019061041591906137a8565b6110aa565b604051610427919061319a565b60405180910390f35b34801561043c57600080fd5b506104576004803603810190610452919061329d565b6110e6565b60405161046491906133a1565b60405180910390f35b34801561047957600080fd5b50610494600480360381019061048f919061329d565b611157565b6040516104a1919061330b565b60405180910390f35b3480156104b657600080fd5b506104d160048036038101906104cc919061329d565b611208565b6040516104de9190613846565b60405180910390f35b3480156104f357600080fd5b5061050e60048036038101906105099190613861565b6112ba565b60405161051b91906133a1565b60405180910390f35b34801561053057600080fd5b50610539611371565b6040516105469190613651565b60405180910390f35b34801561055b57600080fd5b506105646114d5565b005b34801561057257600080fd5b5061058d6004803603810190610588919061329d565b61155d565b005b34801561059b57600080fd5b506105b660048036038101906105b1919061329d565b611569565b005b3480156105c457600080fd5b506105cd611632565b6040516105da919061330b565b60405180910390f35b3480156105ef57600080fd5b506105f861165c565b6040516106059190613245565b60405180910390f35b34801561061a57600080fd5b50610635600480360381019061063091906138ba565b6116ee565b005b34801561064357600080fd5b5061065e6004803603810190610659919061399b565b611704565b005b61067a60048036038101906106759190613a1e565b611766565b60405161068791906133a1565b60405180910390f35b34801561069c57600080fd5b506106a561188b565b6040516106b291906133a1565b60405180910390f35b3480156106c757600080fd5b506106e260048036038101906106dd919061329d565b611891565b6040516106ef9190613245565b60405180910390f35b34801561070457600080fd5b5061070d6119e2565b60405161071a91906133a1565b60405180910390f35b34801561072f57600080fd5b5061074a60048036038101906107459190613a7a565b6119ec565b604051610757919061319a565b60405180910390f35b34801561076c57600080fd5b5061078760048036038101906107829190613861565b611a80565b005b60007f80ac58cd000000000000000000000000000000000000000000000000000000007bffffffffffffffffffffffffffffffffffffffffffffffffffffffff1916827bffffffffffffffffffffffffffffffffffffffffffffffffffffffff1916148061085457507f5b5e139f000000000000000000000000000000000000000000000000000000007bffffffffffffffffffffffffffffffffffffffffffffffffffffffff1916827bffffffffffffffffffffffffffffffffffffffffffffffffffffffff1916145b80610864575061086382611b77565b5b9050919050565b60606000805461087a90613ae9565b80601f01602080910402602001604051908101604052809291908181526020018280546108a690613ae9565b80156108f35780601f106108c8576101008083540402835291602001916108f3565b820191906000526020600020905b8154815290600101906020018083116108d657829003601f168201915b5050505050905090565b600061090882611be1565b610947576040517f08c379a000000000000000000000000000000000000000000000000000000000815260040161093e90613b8c565b60405180910390fd5b6004600083815260200190815260200160002060009054906101000a900473ffffffffffffffffffffffffffffffffffffffff169050919050565b600061098d82611157565b90508073ffffffffffffffffffffffffffffffffffffffff168373ffffffffffffffffffffffffffffffffffffffff16036109fd576040517f08c379a00000000000000000000000000000000000000000000000000000000081526004016109f490613c1e565b60405180910390fd5b8073ffffffffffffffffffffffffffffffffffffffff16610a1c611c4d565b73ffffffffffffffffffffffffffffffffffffffff161480610a4b5750610a4a81610a45611c4d565b6119ec565b5b610a8a576040517f08c379a0000000000000000000000000000000000000000000000000000000008152600401610a8190613cb0565b60405180910390fd5b610a948383611c55565b505050565b6000600f80549050905090565b6060600f805480602002602001604051908101604052809291908181526020018280548015610af457602002820191906000526020600020905b815481526020019060010190808311610ae0575b5050505050905090565b3373ffffffffffffffffffffffffffffffffffffffff16610b1e83611157565b73ffffffffffffffffffffffffffffffffffffffff1614610b74576040517f08c379a0000000000000000000000000000000000000000000000000000000008152600401610b6b90613d42565b60405180910390fd5b600c600083815260200190815260200160002060020160149054906101000a900460ff1615610bd8576040517f08c379a0000000000000000000000000000000000000000000000000000000008152600401610bcf90613dae565b60405180910390fd5b6008543414610c1c576040517f08c379a0000000000000000000000000000000000000000000000000000000008152600401610c1390613e40565b60405180910390fd5b6001600c600084815260200190815260200160002060020160146101000a81548160ff02191690831515021790555080600c60008481526020019081526020016000206001018190555060096000815480929190610c7990613e8f565b91905055505050565b610c93610c8d611c4d565b82611d0e565b610cd2576040517f08c379a0000000000000000000000000000000000000000000000000000000008152600401610cc990613f49565b60405180910390fd5b610cdd838383611dec565b505050565b6000600c60008381526020019081526020016000206001015490506000610d0883611157565b90508073ffffffffffffffffffffffffffffffffffffffff163373ffffffffffffffffffffffffffffffffffffffff1603610d78576040517f08c379a0000000000000000000000000000000000000000000000000000000008152600401610d6f90613fb5565b60405180910390fd5b813414610dba576040517f08c379a0000000000000000000000000000000000000000000000000000000008152600401610db190614021565b60405180910390fd5b6000600c600085815260200190815260200160002060020160146101000a81548160ff02191690831515021790555060096000815480929190610dfc90614041565b9190505550610e0c813385611dec565b8073ffffffffffffffffffffffffffffffffffffffff166108fc349081150290604051600060405180830381858888f19350505050158015610e52573d6000803e3d6000fd5b50505050565b6000610e63836112ba565b8210610ea4576040517f08c379a0000000000000000000000000000000000000000000000000000000008152600401610e9b906140b6565b60405180910390fd5b600d60008473ffffffffffffffffffffffffffffffffffffffff1673ffffffffffffffffffffffffffffffffffffffff168152602001908152602001600020600083815260200190815260200160002054905092915050565b60606000610f09610a99565b905060008060095467ffffffffffffffff811115610f2a57610f2961367d565b5b604051908082528060200260200182016040528015610f6357816020015b610f50613049565b815260200190600190039081610f485790505b50905060005b83811015611080576000610f7c826110e6565b90506000600c600083815260200190815260200160002090508060020160149054906101000a900460ff161561106b578060405180608001604052908160008201548152602001600182015481526020016002820160009054906101000a900473ffffffffffffffffffffffffffffffffffffffff1673ffffffffffffffffffffffffffffffffffffffff1673ffffffffffffffffffffffffffffffffffffffff1681526020016002820160149054906101000a900460ff1615151515815250508486815181106110505761104f6140d6565b5b60200260200101819052506001856110689190614105565b94505b5050808061107890613e8f565b915050610f69565b5080935050505090565b6110a583838360405180602001604052806000815250611704565b505050565b600060011515600b836040516110c09190614175565b908152602001604051809103902060009054906101000a900460ff161515149050919050565b60006110f0610a99565b8210611131576040517f08c379a0000000000000000000000000000000000000000000000000000000008152600401611128906140b6565b60405180910390fd5b600f8281548110611145576111446140d6565b5b90600052602060002001549050919050565b6000806002600084815260200190815260200160002060009054906101000a900473ffffffffffffffffffffffffffffffffffffffff169050600073ffffffffffffffffffffffffffffffffffffffff168173ffffffffffffffffffffffffffffffffffffffff16036111ff576040517f08c379a00000000000000000000000000000000000000000000000000000000081526004016111f6906141fe565b60405180910390fd5b80915050919050565b611210613049565b600c600083815260200190815260200160002060405180608001604052908160008201548152602001600182015481526020016002820160009054906101000a900473ffffffffffffffffffffffffffffffffffffffff1673ffffffffffffffffffffffffffffffffffffffff1673ffffffffffffffffffffffffffffffffffffffff1681526020016002820160149054906101000a900460ff1615151515815250509050919050565b60008073ffffffffffffffffffffffffffffffffffffffff168273ffffffffffffffffffffffffffffffffffffffff160361132a576040517f08c379a000000000000000000000000000000000000000000000000000000000815260040161132190614290565b60405180910390fd5b600360008373ffffffffffffffffffffffffffffffffffffffff1673ffffffffffffffffffffffffffffffffffffffff168152602001908152602001600020549050919050565b6060600061137e336112ba565b905060008167ffffffffffffffff81111561139c5761139b61367d565b5b6040519080825280602002602001820160405280156113d557816020015b6113c2613049565b8152602001906001900390816113ba5790505b50905060005b828110156114cc5760006113ef3383610e58565b90506000600c600083815260200190815260200160002090508060405180608001604052908160008201548152602001600182015481526020016002820160009054906101000a900473ffffffffffffffffffffffffffffffffffffffff1673ffffffffffffffffffffffffffffffffffffffff1673ffffffffffffffffffffffffffffffffffffffff1681526020016002820160149054906101000a900460ff1615151515815250508484815181106114ac576114ab6140d6565b5b6020026020010181905250505080806114c490613e8f565b9150506113db565b50809250505090565b6114dd611c4d565b73ffffffffffffffffffffffffffffffffffffffff166114fb611632565b73ffffffffffffffffffffffffffffffffffffffff1614611551576040517f08c379a0000000000000000000000000000000000000000000000000000000008152600401611548906142fc565b60405180910390fd5b61155b6000612052565b565b61156681612118565b50565b611571611c4d565b73ffffffffffffffffffffffffffffffffffffffff1661158f611632565b73ffffffffffffffffffffffffffffffffffffffff16146115e5576040517f08c379a00000000000000000000000000000000000000000000000000000000081526004016115dc906142fc565b60405180910390fd5b60008111611628576040517f08c379a000000000000000000000000000000000000000000000000000000000815260040161161f90614368565b60405180910390fd5b8060088190555050565b6000600760009054906101000a900473ffffffffffffffffffffffffffffffffffffffff16905090565b60606001805461166b90613ae9565b80601f016020809104026020016040519081016040528092919081815260200182805461169790613ae9565b80156116e45780601f106116b9576101008083540402835291602001916116e4565b820191906000526020600020905b8154815290600101906020018083116116c757829003601f168201915b5050505050905090565b6117006116f9611c4d565b838361216b565b5050565b61171561170f611c4d565b83611d0e565b611754576040517f08c379a000000000000000000000000000000000000000000000000000000000815260040161174b90613f49565b60405180910390fd5b611760848484846122d7565b50505050565b6000611771836110aa565b156117b1576040517f08c379a00000000000000000000000000000000000000000000000000000000081526004016117a8906143d4565b60405180910390fd5b60085434146117f5576040517f08c379a00000000000000000000000000000000000000000000000000000000081526004016117ec90613e40565b60405180910390fd5b600a600081548092919061180890613e8f565b91905055506009600081548092919061182090613e8f565b91905055506000600a5490506118363382612333565b6118408185612351565b6001600b856040516118529190614175565b908152602001604051809103902060006101000a81548160ff02191690831515021790555061188181846123be565b8091505092915050565b60085481565b606061189c82611be1565b6118db576040517f08c379a00000000000000000000000000000000000000000000000000000000081526004016118d290614466565b60405180910390fd5b60006006600084815260200190815260200160002080546118fb90613ae9565b80601f016020809104026020016040519081016040528092919081815260200182805461192790613ae9565b80156119745780601f1061194957610100808354040283529160200191611974565b820191906000526020600020905b81548152906001019060200180831161195757829003601f168201915b50505050509050600061198561250e565b9050600081510361199a5781925050506119dd565b6000825111156119cf5780826040516020016119b7929190614486565b604051602081830303815290604052925050506119dd565b6119d884612525565b925050505b919050565b6000600954905090565b6000600560008473ffffffffffffffffffffffffffffffffffffffff1673ffffffffffffffffffffffffffffffffffffffff16815260200190815260200160002060008373ffffffffffffffffffffffffffffffffffffffff1673ffffffffffffffffffffffffffffffffffffffff16815260200190815260200160002060009054906101000a900460ff16905092915050565b611a88611c4d565b73ffffffffffffffffffffffffffffffffffffffff16611aa6611632565b73ffffffffffffffffffffffffffffffffffffffff1614611afc576040517f08c379a0000000000000000000000000000000000000000000000000000000008152600401611af3906142fc565b60405180910390fd5b600073ffffffffffffffffffffffffffffffffffffffff168173ffffffffffffffffffffffffffffffffffffffff1603611b6b576040517f08c379a0000000000000000000000000000000000000000000000000000000008152600401611b629061451c565b60405180910390fd5b611b7481612052565b50565b60007f01ffc9a7000000000000000000000000000000000000000000000000000000007bffffffffffffffffffffffffffffffffffffffffffffffffffffffff1916827bffffffffffffffffffffffffffffffffffffffffffffffffffffffff1916149050919050565b60008073ffffffffffffffffffffffffffffffffffffffff166002600084815260200190815260200160002060009054906101000a900473ffffffffffffffffffffffffffffffffffffffff1673ffffffffffffffffffffffffffffffffffffffff1614159050919050565b600033905090565b816004600083815260200190815260200160002060006101000a81548173ffffffffffffffffffffffffffffffffffffffff021916908373ffffffffffffffffffffffffffffffffffffffff160217905550808273ffffffffffffffffffffffffffffffffffffffff16611cc883611157565b73ffffffffffffffffffffffffffffffffffffffff167f8c5be1e5ebec7d5bd14f71427d1e84f3dd0314c0f7b2291e5b200ac8c7c3b92560405160405180910390a45050565b6000611d1982611be1565b611d58576040517f08c379a0000000000000000000000000000000000000000000000000000000008152600401611d4f906145ae565b60405180910390fd5b6000611d6383611157565b90508073ffffffffffffffffffffffffffffffffffffffff168473ffffffffffffffffffffffffffffffffffffffff161480611dd257508373ffffffffffffffffffffffffffffffffffffffff16611dba846108fd565b73ffffffffffffffffffffffffffffffffffffffff16145b80611de35750611de281856119ec565b5b91505092915050565b8273ffffffffffffffffffffffffffffffffffffffff16611e0c82611157565b73ffffffffffffffffffffffffffffffffffffffff1614611e62576040517f08c379a0000000000000000000000000000000000000000000000000000000008152600401611e5990614640565b60405180910390fd5b600073ffffffffffffffffffffffffffffffffffffffff168273ffffffffffffffffffffffffffffffffffffffff1603611ed1576040517f08c379a0000000000000000000000000000000000000000000000000000000008152600401611ec8906146d2565b60405180910390fd5b611edc8383836125cc565b611ee7600082611c55565b6001600360008573ffffffffffffffffffffffffffffffffffffffff1673ffffffffffffffffffffffffffffffffffffffff1681526020019081526020016000206000828254611f3791906146f2565b925050819055506001600360008473ffffffffffffffffffffffffffffffffffffffff1673ffffffffffffffffffffffffffffffffffffffff1681526020019081526020016000206000828254611f8e9190614105565b92505081905550816002600083815260200190815260200160002060006101000a81548173ffffffffffffffffffffffffffffffffffffffff021916908373ffffffffffffffffffffffffffffffffffffffff160217905550808273ffffffffffffffffffffffffffffffffffffffff168473ffffffffffffffffffffffffffffffffffffffff167fddf252ad1be2c89b69c2b068fc378daa952ba7f163c4a11628f55a4df523b3ef60405160405180910390a461204d8383836126de565b505050565b6000600760009054906101000a900473ffffffffffffffffffffffffffffffffffffffff16905081600760006101000a81548173ffffffffffffffffffffffffffffffffffffffff021916908373ffffffffffffffffffffffffffffffffffffffff1602179055508173ffffffffffffffffffffffffffffffffffffffff168173ffffffffffffffffffffffffffffffffffffffff167f8be0079c531659141344cd1fd0a4f28419497f9722a3daafe3b4186f6b6457e060405160405180910390a35050565b612121816126e3565b600060066000838152602001908152602001600020805461214190613ae9565b905014612168576006600082815260200190815260200160002060006121679190613089565b5b50565b8173ffffffffffffffffffffffffffffffffffffffff168373ffffffffffffffffffffffffffffffffffffffff16036121d9576040517f08c379a00000000000000000000000000000000000000000000000000000000081526004016121d090614772565b60405180910390fd5b80600560008573ffffffffffffffffffffffffffffffffffffffff1673ffffffffffffffffffffffffffffffffffffffff16815260200190815260200160002060008473ffffffffffffffffffffffffffffffffffffffff1673ffffffffffffffffffffffffffffffffffffffff16815260200190815260200160002060006101000a81548160ff0219169083151502179055508173ffffffffffffffffffffffffffffffffffffffff168373ffffffffffffffffffffffffffffffffffffffff167f17307eab39ab6107e8899845ad3d59bd9653f200f220920489ca2b5937696c31836040516122ca919061319a565b60405180910390a3505050565b6122e2848484611dec565b6122ee84848484612800565b61232d576040517f08c379a000000000000000000000000000000000000000000000000000000000815260040161232490614804565b60405180910390fd5b50505050565b61234d828260405180602001604052806000815250612987565b5050565b61235a82611be1565b612399576040517f08c379a000000000000000000000000000000000000000000000000000000000815260040161239090614896565b60405180910390fd5b806006600084815260200190815260200160002090816123b99190614a62565b505050565b60008111612401576040517f08c379a00000000000000000000000000000000000000000000000000000000081526004016123f890614368565b60405180910390fd5b60405180608001604052808381526020018281526020013373ffffffffffffffffffffffffffffffffffffffff16815260200160011515815250600c6000848152602001908152602001600020600082015181600001556020820151816001015560408201518160020160006101000a81548173ffffffffffffffffffffffffffffffffffffffff021916908373ffffffffffffffffffffffffffffffffffffffff16021790555060608201518160020160146101000a81548160ff0219169083151502179055509050507f470031062672bc0246e132c723a729c4676710ec663a29e86c88678032daddea82823360016040516125029493929190614b34565b60405180910390a15050565b606060405180602001604052806000815250905090565b606061253082611be1565b61256f576040517f08c379a000000000000000000000000000000000000000000000000000000000815260040161256690614beb565b60405180910390fd5b600061257961250e565b9050600081511161259957604051806020016040528060008152506125c4565b806125a3846129e2565b6040516020016125b4929190614486565b6040516020818303038152906040525b915050919050565b6125d7838383612b42565b600073ffffffffffffffffffffffffffffffffffffffff168373ffffffffffffffffffffffffffffffffffffffff16036126195761261481612b47565b612658565b8173ffffffffffffffffffffffffffffffffffffffff168373ffffffffffffffffffffffffffffffffffffffff1614612657576126568382612b90565b5b5b600073ffffffffffffffffffffffffffffffffffffffff168273ffffffffffffffffffffffffffffffffffffffff160361269a5761269581612cfd565b6126d9565b8273ffffffffffffffffffffffffffffffffffffffff168273ffffffffffffffffffffffffffffffffffffffff16146126d8576126d78282612dce565b5b5b505050565b505050565b60006126ee82611157565b90506126fc816000846125cc565b612707600083611c55565b6001600360008373ffffffffffffffffffffffffffffffffffffffff1673ffffffffffffffffffffffffffffffffffffffff168152602001908152602001600020600082825461275791906146f2565b925050819055506002600083815260200190815260200160002060006101000a81549073ffffffffffffffffffffffffffffffffffffffff021916905581600073ffffffffffffffffffffffffffffffffffffffff168273ffffffffffffffffffffffffffffffffffffffff167fddf252ad1be2c89b69c2b068fc378daa952ba7f163c4a11628f55a4df523b3ef60405160405180910390a46127fc816000846126de565b5050565b60006128218473ffffffffffffffffffffffffffffffffffffffff16612e4d565b1561297a578373ffffffffffffffffffffffffffffffffffffffff1663150b7a0261284a611c4d565b8786866040518563ffffffff1660e01b815260040161286c9493929190614c60565b6020604051808303816000875af19250505080156128a857506040513d601f19601f820116820180604052508101906128a59190614cc1565b60015b61292a573d80600081146128d8576040519150601f19603f3d011682016040523d82523d6000602084013e6128dd565b606091505b506000815103612922576040517f08c379a000000000000000000000000000000000000000000000000000000000815260040161291990614804565b60405180910390fd5b805181602001fd5b63150b7a0260e01b7bffffffffffffffffffffffffffffffffffffffffffffffffffffffff1916817bffffffffffffffffffffffffffffffffffffffffffffffffffffffff19161491505061297f565b600190505b949350505050565b6129918383612e70565b61299e6000848484612800565b6129dd576040517f08c379a00000000000000000000000000000000000000000000000000000000081526004016129d490614804565b60405180910390fd5b505050565b606060008203612a29576040518060400160405280600181526020017f30000000000000000000000000000000000000000000000000000000000000008152509050612b3d565b600082905060005b60008214612a5b578080612a4490613e8f565b915050600a82612a549190614d1d565b9150612a31565b60008167ffffffffffffffff811115612a7757612a7661367d565b5b6040519080825280601f01601f191660200182016040528015612aa95781602001600182028036833780820191505090505b5090505b60008514612b3657600182612ac291906146f2565b9150600a85612ad19190614d4e565b6030612add9190614105565b60f81b818381518110612af357612af26140d6565b5b60200101907effffffffffffffffffffffffffffffffffffffffffffffffffffffffffffff1916908160001a905350600a85612b2f9190614d1d565b9450612aad565b8093505050505b919050565b505050565b600f805490506010600083815260200190815260200160002081905550600f81908060018154018082558091505060019003906000526020600020016000909190919091505550565b60006001612b9d846112ba565b612ba791906146f2565b90506000600e6000848152602001908152602001600020549050818114612c8c576000600d60008673ffffffffffffffffffffffffffffffffffffffff1673ffffffffffffffffffffffffffffffffffffffff168152602001908152602001600020600084815260200190815260200160002054905080600d60008773ffffffffffffffffffffffffffffffffffffffff1673ffffffffffffffffffffffffffffffffffffffff16815260200190815260200160002060008481526020019081526020016000208190555081600e600083815260200190815260200160002081905550505b600e600084815260200190815260200160002060009055600d60008573ffffffffffffffffffffffffffffffffffffffff1673ffffffffffffffffffffffffffffffffffffffff16815260200190815260200160002060008381526020019081526020016000206000905550505050565b60006001600f80549050612d1191906146f2565b90506000601060008481526020019081526020016000205490506000600f8381548110612d4157612d406140d6565b5b9060005260206000200154905080600f8381548110612d6357612d626140d6565b5b90600052602060002001819055508160106000838152602001908152602001600020819055506010600085815260200190815260200160002060009055600f805480612db257612db1614d7f565b5b6001900381819060005260206000200160009055905550505050565b6000612dd9836112ba565b905081600d60008573ffffffffffffffffffffffffffffffffffffffff1673ffffffffffffffffffffffffffffffffffffffff16815260200190815260200160002060008381526020019081526020016000208190555080600e600084815260200190815260200160002081905550505050565b6000808273ffffffffffffffffffffffffffffffffffffffff163b119050919050565b600073ffffffffffffffffffffffffffffffffffffffff168273ffffffffffffffffffffffffffffffffffffffff1603612edf576040517f08c379a0000000000000000000000000000000000000000000000000000000008152600401612ed690614dfa565b60405180910390fd5b612ee881611be1565b15612f28576040517f08c379a0000000000000000000000000000000000000000000000000000000008152600401612f1f90614e66565b60405180910390fd5b612f34600083836125cc565b6001600360008473ffffffffffffffffffffffffffffffffffffffff1673ffffffffffffffffffffffffffffffffffffffff1681526020019081526020016000206000828254612f849190614105565b92505081905550816002600083815260200190815260200160002060006101000a81548173ffffffffffffffffffffffffffffffffffffffff021916908373ffffffffffffffffffffffffffffffffffffffff160217905550808273ffffffffffffffffffffffffffffffffffffffff16600073ffffffffffffffffffffffffffffffffffffffff167fddf252ad1be2c89b69c2b068fc378daa952ba7f163c4a11628f55a4df523b3ef60405160405180910390a4613045600083836126de565b5050565b60405180608001604052806000815260200160008152602001600073ffffffffffffffffffffffffffffffffffffffff1681526020016000151581525090565b50805461309590613ae9565b6000825580601f106130a757506130c6565b601f0160209004906000526020600020908101906130c591906130c9565b5b50565b5b808211156130e25760008160009055506001016130ca565b5090565b6000604051905090565b600080fd5b600080fd5b60007fffffffff0000000000000000000000000000000000000000000000000000000082169050919050565b61312f816130fa565b811461313a57600080fd5b50565b60008135905061314c81613126565b92915050565b600060208284031215613168576131676130f0565b5b60006131768482850161313d565b91505092915050565b60008115159050919050565b6131948161317f565b82525050565b60006020820190506131af600083018461318b565b92915050565b600081519050919050565b600082825260208201905092915050565b60005b838110156131ef5780820151818401526020810190506131d4565b60008484015250505050565b6000601f19601f8301169050919050565b6000613217826131b5565b61322181856131c0565b93506132318185602086016131d1565b61323a816131fb565b840191505092915050565b6000602082019050818103600083015261325f818461320c565b905092915050565b6000819050919050565b61327a81613267565b811461328557600080fd5b50565b60008135905061329781613271565b92915050565b6000602082840312156132b3576132b26130f0565b5b60006132c184828501613288565b91505092915050565b600073ffffffffffffffffffffffffffffffffffffffff82169050919050565b60006132f5826132ca565b9050919050565b613305816132ea565b82525050565b600060208201905061332060008301846132fc565b92915050565b61332f816132ea565b811461333a57600080fd5b50565b60008135905061334c81613326565b92915050565b60008060408385031215613369576133686130f0565b5b60006133778582860161333d565b925050602061338885828601613288565b9150509250929050565b61339b81613267565b82525050565b60006020820190506133b66000830184613392565b92915050565b600081519050919050565b600082825260208201905092915050565b6000819050602082019050919050565b6133f181613267565b82525050565b600061340383836133e8565b60208301905092915050565b6000602082019050919050565b6000613427826133bc565b61343181856133c7565b935061343c836133d8565b8060005b8381101561346d57815161345488826133f7565b975061345f8361340f565b925050600181019050613440565b5085935050505092915050565b60006020820190508181036000830152613494818461341c565b905092915050565b600080604083850312156134b3576134b26130f0565b5b60006134c185828601613288565b92505060206134d285828601613288565b9150509250929050565b6000806000606084860312156134f5576134f46130f0565b5b60006135038682870161333d565b93505060206135148682870161333d565b925050604061352586828701613288565b9150509250925092565b600081519050919050565b600082825260208201905092915050565b6000819050602082019050919050565b613564816132ea565b82525050565b6135738161317f565b82525050565b60808201600082015161358f60008501826133e8565b5060208201516135a260208501826133e8565b5060408201516135b5604085018261355b565b5060608201516135c8606085018261356a565b50505050565b60006135da8383613579565b60808301905092915050565b6000602082019050919050565b60006135fe8261352f565b613608818561353a565b93506136138361354b565b8060005b8381101561364457815161362b88826135ce565b9750613636836135e6565b925050600181019050613617565b5085935050505092915050565b6000602082019050818103600083015261366b81846135f3565b905092915050565b600080fd5b600080fd5b7f4e487b7100000000000000000000000000000000000000000000000000000000600052604160045260246000fd5b6136b5826131fb565b810181811067ffffffffffffffff821117156136d4576136d361367d565b5b80604052505050565b60006136e76130e6565b90506136f382826136ac565b919050565b600067ffffffffffffffff8211156137135761371261367d565b5b61371c826131fb565b9050602081019050919050565b82818337600083830152505050565b600061374b613746846136f8565b6136dd565b90508281526020810184848401111561376757613766613678565b5b613772848285613729565b509392505050565b600082601f83011261378f5761378e613673565b5b813561379f848260208601613738565b91505092915050565b6000602082840312156137be576137bd6130f0565b5b600082013567ffffffffffffffff8111156137dc576137db6130f5565b5b6137e88482850161377a565b91505092915050565b60808201600082015161380760008501826133e8565b50602082015161381a60208501826133e8565b50604082015161382d604085018261355b565b506060820151613840606085018261356a565b50505050565b600060808201905061385b60008301846137f1565b92915050565b600060208284031215613877576138766130f0565b5b60006138858482850161333d565b91505092915050565b6138978161317f565b81146138a257600080fd5b50565b6000813590506138b48161388e565b92915050565b600080604083850312156138d1576138d06130f0565b5b60006138df8582860161333d565b92505060206138f0858286016138a5565b9150509250929050565b600067ffffffffffffffff8211156139155761391461367d565b5b61391e826131fb565b9050602081019050919050565b600061393e613939846138fa565b6136dd565b90508281526020810184848401111561395a57613959613678565b5b613965848285613729565b509392505050565b600082601f83011261398257613981613673565b5b813561399284826020860161392b565b91505092915050565b600080600080608085870312156139b5576139b46130f0565b5b60006139c38782880161333d565b94505060206139d48782880161333d565b93505060406139e587828801613288565b925050606085013567ffffffffffffffff811115613a0657613a056130f5565b5b613a128782880161396d565b91505092959194509250565b60008060408385031215613a3557613a346130f0565b5b600083013567ffffffffffffffff811115613a5357613a526130f5565b5b613a5f8582860161377a565b9250506020613a7085828601613288565b9150509250929050565b60008060408385031215613a9157613a906130f0565b5b6000613a9f8582860161333d565b9250506020613ab08582860161333d565b9150509250929050565b7f4e487b7100000000000000000000000000000000000000000000000000000000600052602260045260246000fd5b60006002820490506001821680613b0157607f821691505b602082108103613b1457613b13613aba565b5b50919050565b7f4552433732313a20617070726f76656420717565727920666f72206e6f6e657860008201527f697374656e7420746f6b656e0000000000000000000000000000000000000000602082015250565b6000613b76602c836131c0565b9150613b8182613b1a565b604082019050919050565b60006020820190508181036000830152613ba581613b69565b9050919050565b7f4552433732313a20617070726f76616c20746f2063757272656e74206f776e6560008201527f7200000000000000000000000000000000000000000000000000000000000000602082015250565b6000613c086021836131c0565b9150613c1382613bac565b604082019050919050565b60006020820190508181036000830152613c3781613bfb565b9050919050565b7f4552433732313a20617070726f76652063616c6c6572206973206e6f74206f7760008201527f6e6572206e6f7220617070726f76656420666f7220616c6c0000000000000000602082015250565b6000613c9a6038836131c0565b9150613ca582613c3e565b604082019050919050565b60006020820190508181036000830152613cc981613c8d565b9050919050565b7f596f7520617265206e6f7420746865206f776e6572206f662074686973206e6660008201527f7400000000000000000000000000000000000000000000000000000000000000602082015250565b6000613d2c6021836131c0565b9150613d3782613cd0565b604082019050919050565b60006020820190508181036000830152613d5b81613d1f565b9050919050565b7f4974656d20697320616c7265616479206f6e2073616c65000000000000000000600082015250565b6000613d986017836131c0565b9150613da382613d62565b602082019050919050565b60006020820190508181036000830152613dc781613d8b565b9050919050565b7f5072696365206d75737420626520657175616c20746f206c697374696e67207060008201527f7269636500000000000000000000000000000000000000000000000000000000602082015250565b6000613e2a6024836131c0565b9150613e3582613dce565b604082019050919050565b60006020820190508181036000830152613e5981613e1d565b9050919050565b7f4e487b7100000000000000000000000000000000000000000000000000000000600052601160045260246000fd5b6000613e9a82613267565b91507fffffffffffffffffffffffffffffffffffffffffffffffffffffffffffffffff8203613ecc57613ecb613e60565b5b600182019050919050565b7f4552433732313a207472616e736665722063616c6c6572206973206e6f74206f60008201527f776e6572206e6f7220617070726f766564000000000000000000000000000000602082015250565b6000613f336031836131c0565b9150613f3e82613ed7565b604082019050919050565b60006020820190508181036000830152613f6281613f26565b9050919050565b7f596f7520616c7265616479206f776e2074686973204e46540000000000000000600082015250565b6000613f9f6018836131c0565b9150613faa82613f69565b602082019050919050565b60006020820190508181036000830152613fce81613f92565b9050919050565b7f506c65617365207375626d6974207468652061736b696e672070726963650000600082015250565b600061400b601e836131c0565b915061401682613fd5565b602082019050919050565b6000602082019050818103600083015261403a81613ffe565b9050919050565b600061404c82613267565b91506000820361405f5761405e613e60565b5b600182039050919050565b7f496e646578206f7574206f6620626f756e647300000000000000000000000000600082015250565b60006140a06013836131c0565b91506140ab8261406a565b602082019050919050565b600060208201905081810360008301526140cf81614093565b9050919050565b7f4e487b7100000000000000000000000000000000000000000000000000000000600052603260045260246000fd5b600061411082613267565b915061411b83613267565b925082820190508082111561413357614132613e60565b5b92915050565b600081905092915050565b600061414f826131b5565b6141598185614139565b93506141698185602086016131d1565b80840191505092915050565b60006141818284614144565b915081905092915050565b7f4552433732313a206f776e657220717565727920666f72206e6f6e657869737460008201527f656e7420746f6b656e0000000000000000000000000000000000000000000000602082015250565b60006141e86029836131c0565b91506141f38261418c565b604082019050919050565b60006020820190508181036000830152614217816141db565b9050919050565b7f4552433732313a2062616c616e636520717565727920666f7220746865207a6560008201527f726f206164647265737300000000000000000000000000000000000000000000602082015250565b600061427a602a836131c0565b91506142858261421e565b604082019050919050565b600060208201905081810360008301526142a98161426d565b9050919050565b7f4f776e61626c653a2063616c6c6572206973206e6f7420746865206f776e6572600082015250565b60006142e66020836131c0565b91506142f1826142b0565b602082019050919050565b60006020820190508181036000830152614315816142d9565b9050919050565b7f5072696365206d757374206265206174206c6561737420312077656900000000600082015250565b6000614352601c836131c0565b915061435d8261431c565b602082019050919050565b6000602082019050818103600083015261438181614345565b9050919050565b7f546f6b656e2055524920616c7265616479206578697374730000000000000000600082015250565b60006143be6018836131c0565b91506143c982614388565b602082019050919050565b600060208201905081810360008301526143ed816143b1565b9050919050565b7f45524337323155524953746f726167653a2055524920717565727920666f722060008201527f6e6f6e6578697374656e7420746f6b656e000000000000000000000000000000602082015250565b60006144506031836131c0565b915061445b826143f4565b604082019050919050565b6000602082019050818103600083015261447f81614443565b9050919050565b60006144928285614144565b915061449e8284614144565b91508190509392505050565b7f4f776e61626c653a206e6577206f776e657220697320746865207a65726f206160008201527f6464726573730000000000000000000000000000000000000000000000000000602082015250565b60006145066026836131c0565b9150614511826144aa565b604082019050919050565b60006020820190508181036000830152614535816144f9565b9050919050565b7f4552433732313a206f70657261746f7220717565727920666f72206e6f6e657860008201527f697374656e7420746f6b656e0000000000000000000000000000000000000000602082015250565b6000614598602c836131c0565b91506145a38261453c565b604082019050919050565b600060208201905081810360008301526145c78161458b565b9050919050565b7f4552433732313a207472616e736665722066726f6d20696e636f72726563742060008201527f6f776e6572000000000000000000000000000000000000000000000000000000602082015250565b600061462a6025836131c0565b9150614635826145ce565b604082019050919050565b600060208201905081810360008301526146598161461d565b9050919050565b7f4552433732313a207472616e7366657220746f20746865207a65726f2061646460008201527f7265737300000000000000000000000000000000000000000000000000000000602082015250565b60006146bc6024836131c0565b91506146c782614660565b604082019050919050565b600060208201905081810360008301526146eb816146af565b9050919050565b60006146fd82613267565b915061470883613267565b92508282039050818111156147205761471f613e60565b5b92915050565b7f4552433732313a20617070726f766520746f2063616c6c657200000000000000600082015250565b600061475c6019836131c0565b915061476782614726565b602082019050919050565b6000602082019050818103600083015261478b8161474f565b9050919050565b7f4552433732313a207472616e7366657220746f206e6f6e20455243373231526560008201527f63656976657220696d706c656d656e7465720000000000000000000000000000602082015250565b60006147ee6032836131c0565b91506147f982614792565b604082019050919050565b6000602082019050818103600083015261481d816147e1565b9050919050565b7f45524337323155524953746f726167653a2055524920736574206f66206e6f6e60008201527f6578697374656e7420746f6b656e000000000000000000000000000000000000602082015250565b6000614880602e836131c0565b915061488b82614824565b604082019050919050565b600060208201905081810360008301526148af81614873565b9050919050565b60008190508160005260206000209050919050565b60006020601f8301049050919050565b600082821b905092915050565b6000600883026149187fffffffffffffffffffffffffffffffffffffffffffffffffffffffffffffffff826148db565b61492286836148db565b95508019841693508086168417925050509392505050565b6000819050919050565b600061495f61495a61495584613267565b61493a565b613267565b9050919050565b6000819050919050565b61497983614944565b61498d61498582614966565b8484546148e8565b825550505050565b600090565b6149a2614995565b6149ad818484614970565b505050565b5b818110156149d1576149c660008261499a565b6001810190506149b3565b5050565b601f821115614a16576149e7816148b6565b6149f0846148cb565b810160208510156149ff578190505b614a13614a0b856148cb565b8301826149b2565b50505b505050565b600082821c905092915050565b6000614a3960001984600802614a1b565b1980831691505092915050565b6000614a528383614a28565b9150826002028217905092915050565b614a6b826131b5565b67ffffffffffffffff811115614a8457614a8361367d565b5b614a8e8254613ae9565b614a998282856149d5565b600060209050601f831160018114614acc5760008415614aba578287015190505b614ac48582614a46565b865550614b2c565b601f198416614ada866148b6565b60005b82811015614b0257848901518255600182019150602085019450602081019050614add565b86831015614b1f5784890151614b1b601f891682614a28565b8355505b6001600288020188555050505b505050505050565b6000608082019050614b496000830187613392565b614b566020830186613392565b614b6360408301856132fc565b614b70606083018461318b565b95945050505050565b7f4552433732314d657461646174613a2055524920717565727920666f72206e6f60008201527f6e6578697374656e7420746f6b656e0000000000000000000000000000000000602082015250565b6000614bd5602f836131c0565b9150614be082614b79565b604082019050919050565b60006020820190508181036000830152614c0481614bc8565b9050919050565b600081519050919050565b600082825260208201905092915050565b6000614c3282614c0b565b614c3c8185614c16565b9350614c4c8185602086016131d1565b614c55816131fb565b840191505092915050565b6000608082019050614c7560008301876132fc565b614c8260208301866132fc565b614c8f6040830185613392565b8181036060830152614ca18184614c27565b905095945050505050565b600081519050614cbb81613126565b92915050565b600060208284031215614cd757614cd66130f0565b5b6000614ce584828501614cac565b91505092915050565b7f4e487b7100000000000000000000000000000000000000000000000000000000600052601260045260246000fd5b6000614d2882613267565b9150614d3383613267565b925082614d4357614d42614cee565b5b828204905092915050565b6000614d5982613267565b9150614d6483613267565b925082614d7457614d73614cee565b5b828206905092915050565b7f4e487b7100000000000000000000000000000000000000000000000000000000600052603160045260246000fd5b7f4552433732313a206d696e7420746f20746865207a65726f2061646472657373600082015250565b6000614de46020836131c0565b9150614def82614dae565b602082019050919050565b60006020820190508181036000830152614e1381614dd7565b9050919050565b7f4552433732313a20746f6b656e20616c7265616479206d696e74656400000000600082015250565b6000614e50601c836131c0565b9150614e5b82614e1a565b602082019050919050565b60006020820190508181036000830152614e7f81614e43565b905091905056fea2646970667358221220cd4c27c7d478a5587151e5068cd7793c37a7693a30f959425bab8eee6f3ebf3c64736f6c63430008150033",
  "immutableReferences": {},
  "source": "// SPDX-License-Identifier: MIT\npragma solidity >=0.4.22 <0.9.0;\n\nimport \"@openzeppelin/contracts/token/ERC721/extensions/ERC721URIStorage.sol\";\nimport \"@openzeppelin/contracts/access/Ownable.sol\";\n\ncontract NftMarket is ERC721URIStorage, Ownable {\n\n  struct NftItem {\n    uint tokenId;\n    uint price;\n    address creator;\n    bool isListed;\n  }\n\n  uint public listingPrice = 0.025 ether;\n\n  uint private _listedItems;\n  uint private _tokenIds;\n\n  mapping(string => bool) private _usedTokenURIs;\n  mapping(uint => NftItem) private _idToNftItem;\n\n  mapping(address => mapping(uint => uint)) private _ownedTokens;\n  mapping(uint => uint) private _idToOwnedIndex;\n\n  // all token ids in the array\n  uint256[] private _allNfts;\n  mapping(uint => uint) private _idToNftIndex;\n\n  event NftItemCreated (\n    uint tokenId,\n    uint price,\n    address creator,\n    bool isListed\n  );\n\n  constructor() ERC721(\"CreaturesNFT\", \"CNFT\") {}\n\n  function setListingPrice(uint newPrice) external onlyOwner {\n    require(newPrice > 0, 'Price must be at least 1 wei');\n    listingPrice = newPrice;\n  }\n\n  function getNftItem(uint tokenId) public view returns (NftItem memory) {\n    return _idToNftItem[tokenId];\n  }\n\n  function listedItemsCount() public view returns (uint) {\n    return _listedItems;\n  }\n\n  function tokenURIExists(string memory tokenURI) public view returns (bool) {\n    return _usedTokenURIs[tokenURI] == true;\n  }\n\n  function totalSupply() public view returns (uint) {\n    return _allNfts.length;\n  }\n\n  function listNftIds() public view returns (uint[] memory) {\n    return _allNfts;\n  }\n\n  function tokenByIndex(uint index) public view returns (uint) {\n    require(index < totalSupply(), 'Index out of bounds');\n    return _allNfts[index];\n  }\n\n  function tokenOfOwnerByIndex(address owner, uint index) public view returns (uint) {\n    require(index < ERC721.balanceOf(owner), 'Index out of bounds');\n    return _ownedTokens[owner][index];\n  }\n\n  function getAllNftsOnSale() public view returns (NftItem[] memory) {\n    uint allItemsCount = totalSupply();\n    uint currentIndex = 0;\n    NftItem[] memory items = new NftItem[](_listedItems);\n\n    for (uint i = 0; i < allItemsCount; i++) {\n      uint tokenId = tokenByIndex(i);\n      NftItem storage item = _idToNftItem[tokenId];\n\n      if (item.isListed) {\n        items[currentIndex] = item;\n        currentIndex += 1;\n      }\n    }\n\n    return items;\n  }\n\n  function getOwnedNfts() public view returns (NftItem[] memory) {\n    uint ownedItemsCount = ERC721.balanceOf(msg.sender);\n    NftItem[] memory items = new NftItem[](ownedItemsCount);\n\n    for (uint i = 0; i < ownedItemsCount; i++) {\n      uint tokenId = tokenOfOwnerByIndex(msg.sender, i);\n      NftItem storage item = _idToNftItem[tokenId];\n      items[i] = item;\n    }\n\n    return items;\n  }\n\n  function burnToken(uint tokenId) public {\n    _burn(tokenId);\n  }\n\n  function mintToken(string memory tokenURI, uint price) public payable returns(uint) {\n    require(!tokenURIExists(tokenURI), 'Token URI already exists');\n    require(msg.value == listingPrice, 'Price must be equal to listing price');\n\n    _tokenIds++;\n    _listedItems++;\n\n    uint newTokenId = _tokenIds;\n\n    _safeMint(msg.sender, newTokenId);\n    _setTokenURI(newTokenId, tokenURI);\n    _usedTokenURIs[tokenURI] = true;\n    _createNftItem(newTokenId, price);\n\n    return newTokenId;\n  }\n\n  function buyNft(uint tokenId) public payable {\n    uint price = _idToNftItem[tokenId].price;\n    address owner = ownerOf(tokenId);\n\n    require(msg.sender != owner, 'You already own this NFT');\n    require(msg.value == price, 'Please submit the asking price');\n\n    _idToNftItem[tokenId].isListed = false;\n    _listedItems--;\n\n    _transfer(owner, msg.sender, tokenId);\n    payable(owner).transfer(msg.value);\n  }\n\n  function placeNftOnSale(uint tokenId, uint newPrice) public payable {\n    require(ERC721.ownerOf(tokenId) == msg.sender, 'You are not the owner of this nft');\n    require(!_idToNftItem[tokenId].isListed, 'Item is already on sale');\n    require(msg.value == listingPrice, 'Price must be equal to listing price');\n\n    _idToNftItem[tokenId].isListed = true;\n    _idToNftItem[tokenId].price = newPrice;\n    _listedItems++;\n  }\n\n  function _createNftItem(uint tokenId, uint price) private {\n    require(price > 0, 'Price must be at least 1 wei');\n\n    _idToNftItem[tokenId] = NftItem(tokenId, price, msg.sender, true);\n\n    emit NftItemCreated(tokenId, price, msg.sender, true);\n  }\n\n  function _beforeTokenTransfer(address from, address to, uint256 tokenId) internal virtual override {\n    super._beforeTokenTransfer(from, to, tokenId);\n\n    if (from == address(0)) {\n      _addTokenToAllTokensEnumeration(tokenId);\n    } else if (from != to) {\n      _removeTokenFromOwnerEnumeration(from, tokenId);\n    }\n\n    if (to == address(0)) {\n      _removeTokenFromAllTokensEnumeration(tokenId);\n    } else if (to != from) {\n      _addTokenToOwnerEnumeration(to, tokenId);\n    }\n  }\n\n  function _addTokenToAllTokensEnumeration(uint tokenId) private {\n    _idToNftIndex[tokenId] = _allNfts.length;\n    _allNfts.push(tokenId);\n  }\n\n  function _addTokenToOwnerEnumeration(address to, uint tokenId) private {\n    uint length = ERC721.balanceOf(to);\n\n    _ownedTokens[to][length] = tokenId;\n    _idToOwnedIndex[tokenId] = length;\n  }\n\n  function _removeTokenFromOwnerEnumeration(address from, uint tokenId) private {\n    uint lastTokenIndex = ERC721.balanceOf(from) - 1;\n    uint tokenIndex = _idToOwnedIndex[tokenId];\n\n    if (tokenIndex != lastTokenIndex) {\n      uint lastTokenId = _ownedTokens[from][lastTokenIndex];\n\n      _ownedTokens[from][tokenIndex] = lastTokenId;\n      _idToOwnedIndex[lastTokenId] = tokenIndex;\n    }\n\n    delete _idToOwnedIndex[tokenId];\n    delete _ownedTokens[from][lastTokenIndex];\n  }\n\n  function _removeTokenFromAllTokensEnumeration(uint tokenId) private {\n    uint lastTokenIndex = _allNfts.length - 1;\n    uint tokenIndex = _idToNftIndex[tokenId];\n    uint lastTokenId = _allNfts[lastTokenIndex];\n\n    _allNfts[tokenIndex] = lastTokenId;\n    _idToNftIndex[lastTokenId] = tokenIndex;\n\n    delete _idToNftIndex[tokenId];\n    _allNfts.pop();\n  }\n}",
  "sourcePath": "/Users/richardpentecost/tutorials/nft-course/nft-marketplace/contracts/NftMarket.sol",
  "compiler": {
    "name": "solc",
    "version": "0.8.21+commit.d9974bed.Emscripten.clang"
  },
  "schemaVersion": "3.4.16",
  "updatedAt": "2024-05-02T10:29:44.608Z",
  "networkType": "ethereum",
  "devdoc": {
    "events": {
      "Approval(address,address,uint256)": {
        "details": "Emitted when `owner` enables `approved` to manage the `tokenId` token."
      },
      "ApprovalForAll(address,address,bool)": {
        "details": "Emitted when `owner` enables or disables (`approved`) `operator` to manage all of its assets."
      },
      "Transfer(address,address,uint256)": {
        "details": "Emitted when `tokenId` token is transferred from `from` to `to`."
      }
    },
    "kind": "dev",
    "methods": {
      "approve(address,uint256)": {
        "details": "See {IERC721-approve}."
      },
      "balanceOf(address)": {
        "details": "See {IERC721-balanceOf}."
      },
      "getApproved(uint256)": {
        "details": "See {IERC721-getApproved}."
      },
      "isApprovedForAll(address,address)": {
        "details": "See {IERC721-isApprovedForAll}."
      },
      "name()": {
        "details": "See {IERC721Metadata-name}."
      },
      "owner()": {
        "details": "Returns the address of the current owner."
      },
      "ownerOf(uint256)": {
        "details": "See {IERC721-ownerOf}."
      },
      "renounceOwnership()": {
        "details": "Leaves the contract without owner. It will not be possible to call `onlyOwner` functions anymore. Can only be called by the current owner. NOTE: Renouncing ownership will leave the contract without an owner, thereby removing any functionality that is only available to the owner."
      },
      "safeTransferFrom(address,address,uint256)": {
        "details": "See {IERC721-safeTransferFrom}."
      },
      "safeTransferFrom(address,address,uint256,bytes)": {
        "details": "See {IERC721-safeTransferFrom}."
      },
      "setApprovalForAll(address,bool)": {
        "details": "See {IERC721-setApprovalForAll}."
      },
      "supportsInterface(bytes4)": {
        "details": "See {IERC165-supportsInterface}."
      },
      "symbol()": {
        "details": "See {IERC721Metadata-symbol}."
      },
      "tokenURI(uint256)": {
        "details": "See {IERC721Metadata-tokenURI}."
      },
      "transferFrom(address,address,uint256)": {
        "details": "See {IERC721-transferFrom}."
      },
      "transferOwnership(address)": {
        "details": "Transfers ownership of the contract to a new account (`newOwner`). Can only be called by the current owner."
      }
    },
    "version": 1
  },
  "userdoc": {
    "kind": "user",
    "methods": {},
    "version": 1
  }
}